S00B00004C43442E7372656346
S11300000C942A000C9447000C9447000C9447006D
S11300100C9447000C9447000C9447000C94470040
S11300200C9447000C9447000C9447000C94470030
S11300300C9447000C9447000C9447000C94470020
S11300400C9447000C9447000C9447000C94470010
S11300500C94470011241FBECFE5D8E0DEBFCDBF0E
S113006010E0A0E6B0E0E8EFF3E002C005900D92E6
S1130070A439B107D9F720E0A4E9B0E001C01D928A
S1130080A639B207E1F70E94BB010C94FA010C9463
S113009000002FE0FC01208308958BB38F708BBB8D
S11300A0000089B38F70809394008F30B1F787E894
S11300B093E10197F1F700C0000089B38F7080933A
S11300C094008F30A1F38FE097E20197F1F700C01D
S11300D0000089B38F70809394008F3041F38FEECA
S11300E08BBB000089B38F70809394008F3019F01C
S11300F01092950027C08FED8BBB000089B38F70E1
S1130100809394008F3021F081E0809395001AC091
S11301108FEB8BBB000089B38F70809394008F307A
S113012021F082E0809395000DC08FE78BBB000027
S113013089B38F70809394008F3009F4AECF83E03D
S113014080939500809194008E3059F4E09195004D
S1130150F0E0EE0FFF1FEE0FFF1FE05AFF4F80810C
S113016008958D3059F4E0919500F0E0EE0FFF1FF3
S1130170EE0FFF1FE05AFF4F818108958B3059F431
S1130180E0919500F0E0EE0FFF1FEE0FFF1FE05A25
S1130190FF4F82810895E0919500F0E0EE0FFF1F7C
S11301A0EE0FFF1FE05AFF4F8381089595B39F70B0
S11301B0282F207F922B95BB95B39D7F95BB95B33C
S11301C0916095BB000095B39E7F95BB32E43A9550
S11301D0F1F700C025B330E1839FC0011124922FB1
S11301E09F70892B85BB85B3816085BB000085B377
S11301F08E7F85BB83EF91E00197F1F700C000008B
S1130200089595B39F70282F207F922B95BB95B3AB
S1130210926095BB95B3916095BB000095B39E7FAA
S113022095BB32E43A95F1F700C025B330E1839FE2
S1130230C0011124922F9F70892B85BB85B38160E7
S113024085BB000085B38E7F85BB83EF91E001976A
S1130250F1F700C0000008952FEFFC01208387E828
S113026093E10197F1F700C0000082E00E94D600FC
S113027088E20E94D6008CE00E94D60086E00E94AC
S1130280D60081E00E94D600E3EFF1E03197F1F768
S113029000C0000008950F931F93CF93DF938C0148
S11302A0C0E0D0E003C00E9401012196F801EC0FE8
S11302B0FD1F80818111F7CFDF91CF911F910F91A5
S11302C00895CF93DF93EA01811108C0603130F4BF
S11302D0862F8F7080680E94D60009C0813039F45F
S11302E0603128F4862F8F70806C0E94D600CE0176
S11302F00E944B01DF91CF91089581E00E94D600C6
S113030083EF91E00197F1F700C0000080EC0E94B8
S1130310D600089595B39D7F95BB90E4899F600DA9
S11303201124862F80680E94D60085B3826085BB25
S113033081EE94E00197F1F700C000000895CF9397
S1130340DF93D82FC62F0EC06C2F8D2F0E948A01E9
S113035080E20E940101CF5F83ED90E30197F1F702
S113036000C00000C03184F36C2F8D2F0E948A01DD
S1130370DF91CF9108958FEF84BB85E390E00E94D5
S11303802C0180EF8ABB8BE390E00E94490080E758
S113039090E00E944B0160E081E00E948A0188E7BE
S11303A090E00E944B012FE38DE093E021508040C8
S11303B09040E1F700C000000E947D0142E850E057
S11303C060E080E00E9461012FE38DE093E0215022
S11303D080409040E1F700C0000069E080E00E94A6
S11303E09F0169E080E00E948A010E944D000E9402
S10B03F00101F7CFF894FFCFDF
S11303F83134372F323538303336392D414243447E
S113040853797374656D7900576275646F77616E9B
S113041865004B6C617769737A3A20286B6C617755
S10704286129000042
S9030000FC
