:100000000C946D000C948A000C948A000C948A0065
:100010000C948A000C948A000C948A000C948A0038
:100020000C948A000C948A000C94EA000C948A00C8
:100030000C948A000C9412010C948A000C948A008F
:100040000C948A000C948A000C948A000C948A0008
:100050000C948A00B700BC00C100C600CB00D000E1
:10006000D500E100E100E100E100E100E100E10094
:10007000E100E100E100E100E100E100E100E10078
:10008000E100E100E100E100E100E100E100E10068
:10009000E100E100E100E100E100E100E100E10058
:1000A000E100E100E100E100E100E100E100E10048
:1000B000E100E100E100E100D900E100E100E10040
:1000C000E100E100E100E100E100E100E100E10028
:1000D000E100E100E100E100DD0011241FBECFE5F9
:1000E000D8E0DEBFCDBF10E0A0E6B0E0EAE8F2E085
:1000F00002C005900D92AC3FB107D9F720E0ACEFFC
:10010000B0E001C01D92AF3FB207E1F70E943B0192
:100110000C9443010C94000010BC83E389B980B5B2
:10012000866880BD8AB188698AB908955D9BFECFD3
:100130008CB90895CF93DF93EC0103C021960E9400
:10014000960088818111FACFDF91CF9108955F9B4E
:10015000FECF8CB108950E94A70090E0FC01F197BA
:10016000E334F10570F5E65DFF4F0C943D019BB360
:1001700082E089278BBB08959BB384E089278BBBE2
:1001800008959BB388E089278BBB08959BB380E1DA
:1001900089278BBB08959BB380E289278BBB089589
:1001A0009BB380E489278BBB08958BB380588BBBAE
:1001B00008958BB381708BBB08958BB38E6F8BBB0F
:1001C000089582ED90E00E949A0083EE90E00E94F4
:1001D0009A0008951F920F920FB60F9211242F9339
:1001E0008F939F938091FD009091FE0001969093D4
:1001F000FE008093FD008091FD009091FE008C3206
:10020000914041F49BB381E089278BBB1092FE00A3
:100210001092FD009F918F912F910F900FBE0F9024
:100220001F9018951F920F920FB60F9211248F9363
:100230008091FC0080958093FC008CB98BB181602B
:100240008BB98F910F900FBE0F901F9018958FEF65
:100250008ABB1BBA83B78C6183BF80E58CBF82E009
:1002600089BF78940E948C0083EE90E00E949A00EF
:100270000E94AB00FDCF0E942701EE0FFF1F0590EB
:0A028000F491E02D0994F894FFCFEB
:10028A000D0A5261646F73B3617720546F6D637A9C
:10029A00796B0D0A000D0A576369736E696A206BE0
:1002AA006C617769737A205B725D3A20000D0A5798
:1002BA0070726F7761647A6F6E6F2070726177699E
:1002CA00646C6F7779207A6E616B210D0A000D0AD2
:1002DA005770726F7761647A6F6E6F206E6965709E
:1002EA0072617769646C6F7779207A6E616B210D20
:1002FA000A000D0A426C65646E79207A6E616B2180
:10030A000D0A000D0A576369736E696A2070727A62
:0C031A00796369736B20312D373A2000A5
:00000001FF
